:020000040800F2
:10000000000002205D100008210E0008270E0008E5
:100010002D0E0008330E0008390E00080000000005
:100020000000000000000000000000003F0E00087B
:100030004D0E0008000000005B0E0008690E00086D
:10004000AD100008AD100008AD100008AD1000089C
:10005000AD100008AD100008AD100008AD1000088C
:10006000AD100008AD100008AD100008AD1000087C
:10007000AD100008AD100008AD100008AD1000086C
:10008000AD100008AD100008AD100008AD1000085C
:10009000750E0008AD100008AD100008AD10000886
:1000A000AD100008AD100008AD100008AD1000083C
:1000B000AD100008AD100008AD100008AD1000082C
:1000C000AD100008AD100008AD100008AD1000081C
:1000D000AD100008AD100008AD100008AD1000080C
:1000E000890E0008AD100008AD100008AD10000822
:1000F000AD100008AD100008AD100008AD100008EC
:10010000AD100008AD100008AD100008AD100008DB
:10011000AD100008AD100008AD100008AD100008CB
:10012000AD100008AD100008AD100008AD100008BB
:10013000AD1000080000000000000000AD10000835
:10014000990E0008AD100008AD100008AD100008B1
:10015000AD100008AD100008AD100008AD1000088B
:10016000AD100008AD100008AD100008AD1000087B
:10017000AD100008AD1000080000000000000000F5
:08018000AD100008AD100008ED
:1001900010B5054C237833B9044B13B10448AFF3C1
:1001A00000800123237010BD6C00002000000000BF
:1001B000AC3C000808B5034B1BB103490348AFF33F
:1001C000008008BD0000000070000020AC3C00086A
:1001D00001F0FF01102A2BDB10F0070F08D010F8F8
:1001E000013B013A8B422DD010F0070F42B3F6D1FC
:1001F000F0B441EA012141EA014122F007047FF015
:1002000000070023F0E80256083C85EA010586EA6B
:10021000010685FA47F5A3FA87F586FA47F6A5FAA7
:1002200087F68EB9EED1F0BC01F0FF0102F00702B3
:1002300032B110F8013B013A83EA010313B1F8D15E
:100240000020704701387047002D06BF354603383F
:10025000073815F0010F07D1013015F4807F02BF78
:10026000013015F4C03F0130F0BC0138704700BFC9
:1002700053B94AB9002908BF00281CBF4FF0FF310D
:100280004FF0FF3000F070B9ADF1080C6DE904CE0D
:1002900000F006F8DDF804E0DDE9022304B0704761
:1002A0002DE9F047089E0D4604460F46002B4AD123
:1002B0008A42944665D9B2FA82F343B102FA03FC4A
:1002C000C3F120029F4020FA02F217439C404FEAFC
:1002D0001C4E1FFA8CF5B7FBFEF1220C0EFB1177BA
:1002E00042EA074201FB05F090420AD91CEB0202E8
:1002F00001F1FF3780F01C81904240F219810239F0
:100300006244121AA4B2B2FBFEF00EFB102244EAC1
:10031000024400FB05F5A5420AD91CEB040400F1D8
:10032000FF3280F00781A54240F204816444023824
:1003300040EA0140641B00211EB1DC400023C6E9F5
:100340000043BDE8F0878B4208D9002E00F0ED8015
:100350000021C6E900050846BDE8F087B3FA83F13D
:10036000002949D1AB4202D3824200F2F880841ABC
:1003700065EB030201201746002EE2D0C6E90047D4
:10038000DFE702B9FFDEB2FA82F3002B40F0908083
:100390008A1A4FEA1C471FFA8CFE0121B2FBF7F5BF
:1003A00007FB1520220C42EA00420EFB05F09042AA
:1003B00008D91CEB020205F1FF3802D2904200F28C
:1003C000CB804546121AA4B2B2FBF7F007FB10220D
:1003D00044EA02440EFB00FEA64508D91CEB0404C7
:1003E00000F1FF3202D2A64500F2BB801046A4EB1A
:1003F0000E0440EA05409FE7C1F120078B4022FA36
:1004000007FC4CEA030C05FA01F420FA07F3FD405F
:100410004FEA1C492343B5FBF9F81FFA8CFE09FB90
:1004200018551C0C44EA054408FB0EF5A54202FAD7
:1004300001F200FA01F00BD91CEB040408F1FF3AB9
:1004400080F08880A54240F28580A8F102086444CB
:10045000641B9DB2B4FBF9F309FB134445EA044461
:1004600003FB0EFEA64508D91CEB040403F1FF357F
:100470006CD2A6456AD9023B644443EA0843A3FB15
:100480000295A4EB0E04AC42C846AE4656D353D0F8
:1004900056B1B0EB080264EB0E0404FA07F7CA4049
:1004A000CC401743C6E9007418460021BDE8F08728
:1004B000C3F1200102FA03FC20FA01F225FA01F14E
:1004C0009D402A434FEA1C471FFA8CFEB1FBF7F010
:1004D00007FB1015110C41EA054100FB0EF58D429A
:1004E00004FA03F408D91CEB010100F1FF382FD204
:1004F0008D422DD902386144491B92B2B1FBF7F508
:1005000007FB151142EA014205FB0EF1914208D9A1
:100510001CEB020205F1FF3816D2914214D9023DBC
:100520006244521A45EA004138E73146304608E74E
:100530003946E6E61046FBE64845A9D2B9EB020883
:1005400065EB0C0E013BA3E74546EAE72B4694E733
:100550004046D1E7D0467BE7023D624432E7084699
:100560000AE76444023842E7704700BF80B483B0B2
:1005700000AF174B08221A61154B4FF011325A6029
:10058000134B04229A60124B0022DA60104B2E2289
:100590001A600F4B00221A750E4B27221A700D4B52
:1005A00001225A7002237B6007E00A4A7B681344E9
:1005B00055221A707B6801337B607B68072BF4DD62
:1005C00000BF00BF0C37BD465DF8047B704700BF1D
:1005D000D80000201001002080B400AF104B08228A
:1005E0001A610F4B4FF011325A600D4B04229A6082
:1005F0000B4B0022DA600A4B4FF482721A60084BF0
:1006000000221A75074B06221A70064B67225A7091
:10061000044B01229A7000BFBD465DF8047B704711
:10062000D80000201001002080B582B000AF032365
:100630007B600FE01F4A7B6813441A787B68033B9A
:100640001D49CB5C9A4202D01C4B02221A607B6887
:1006500001337B607B68062BECDD184B1B68022B9B
:1006600024D0164B00221A60154B02221A70144B2C
:1006700067225A70124B02229A7003233B6007E0F4
:100680000F4A3B68134455221A703B6801333B60A4
:100690003B68072BF4DD012201210A4801F08AFEA4
:1006A000094B074A09490A4800F094FF00BF083780
:1006B000BD4680BD18010020200100200000002060
:1006C00010010020000402400C010020D80000208E
:1006D000B000002080B483B000AF03237B600DE046
:1006E0000B4A7B6813441B780133D9B2094A7B68F3
:1006F00013440A461A707B6801337B607B68062BC3
:10070000EEDD00BF00BF0C37BD465DF8047B7047CF
:10071000180100201001002080B582B000AF032333
:100720007B6021E002F0DCFA0246144B83FB0213EB
:100730001344D911D317C91A0B461B025B1AD11ADD
:10074000C9B20F4A7B6813440A461A700C4A7B6888
:1007500013441B780133D9B20A4A7B6813440A4612
:100760001A707B6801337B607B68062BDADD044BF3
:100770005522DA7100BF0837BD4680BD8180808078
:10078000100100202001002080B582B000AF034698
:10079000FB80FB88B3F5005F14D1012201210B48D7
:1007A00001F008FEFFF7E2FE094B0A4A0A490B482E
:1007B00000F010FF0346002B04D001220221034861
:1007C00001F0F8FD00BF0837BD4680BD00040240BF
:1007D0000C01002010010020D8000020880000201B
:1007E00080B500AFFFF7F8FE0B4B1B78272B11D11C
:1007F000094B5B78012B07D1FFF78EFF074B084AA7
:100800000849094800F0E6FE034B5B78022B01D152
:10081000FFF70AFF00BF80BD180100200C01002077
:1008200010010020D8000020B000002080B500AFEB
:10083000FFF79CFE0A4B5B78672B0ED1084B9B7829
:10084000012B0AD1074B02229A70FFF743FF064B98
:10085000044A0649064800F0BDFE00BF80BD00BF47
:1008600018010020100100200C010020D8000020F9
:100870008800002080B582B000AF7860012204219A
:10088000134801F097FD134B134A0021134800F061
:100890007CFF0346002B06D1002201210C4801F009
:1008A00089FDFFF79DFF0B4B0B4A00210C4800F020
:1008B0006CFF0346002B06D100220121044801F001
:1008C00079FDFFF7B3FF00BF0837BD4680BD00BF0D
:1008D0000004024018010020F0000020B0000020B9
:1008E0008800002080B500AF00F0E2FB00F028F89F
:1008F00000F036F900F08CF800F0DEF80D4800F05A
:1009000025FE0D4800F022FE02210A4801F04FF8B2
:100910000346002B09D001220121084801F04AFDBD
:1009200001220221054801F045FD0221024801F0A3
:100930003EF8FEE788000020B000002000040240DE
:1009400080B594B000AF07F1200330220021184693
:1009500002F009FB07F10C0300221A605A609A604A
:10096000DA601A610023BB60274B1B6C264A43F0F8
:1009700080531364244B1B6C03F08053BB60BB6833
:1009800000237B60214B1B68204A43F480431360A3
:100990001E4B1B6803F480437B607B6801233B6232
:1009A0004FF480337B620223BB634FF48003FB630D
:1009B00004233B6450237B640223BB640423FB6455
:1009C00007F12003184601F027FD0346002B01D054
:1009D00000F048F90F23FB6002233B6100237B6199
:1009E0004FF48053BB610023FB6107F10C0302212C
:1009F000184601F089FF0346002B01D000F032F9C0
:100A000000BF5037BD4680BD003802400070004036
:100A100080B58AB000AF264B264A1A60244B0A22C2
:100A20005A60234B00229A60214B4FF08072DA60AB
:100A30001F4B4FF440321A611D4B4FF400125A61A4
:100A40001B4B00221A761A4B00225A76184B0022B2
:100A50009A76174B0022DA76154B00221A77144B40
:100A600000225A77124800F095FB0346002B01D074
:100A700000F0F8F801233B6202237B6100233B6115
:100A800000233B6000237B600023BB600023FB60EE
:100A90000023BB610123FB610E237B623B461946A9
:100AA000034800F073FC00BF2837BD4680BD00BF7F
:100AB000880000200064004080B58AB000AF264B5B
:100AC000264A1A60244B0A225A60234B00229A605D
:100AD000214B4FF08072DA601F4B4FF440321A61A5
:100AE0001D4B4FF400125A611B4B00221A761A4B11
:100AF00000225A76184B00229A76174B0022DA769B
:100B0000154B00221A77144B00225A77124800F036
:100B100041FB0346002B01D000F0A4F801233B6207
:100B20000E237B6100233B6100233B6000237B603D
:100B30000023BB600023FB600023BB610123FB613A
:100B40000E237B623B461946034800F01FFC00BFA2
:100B50002837BD4680BD00BFB000002000680040BF
:100B600080B58AB000AF07F1140300221A605A6002
:100B70009A60DA601A6100233B61374B1B6B364A7F
:100B800043F004031363344B1B6B03F004033B611A
:100B90003B690023FB60304B1B6B2F4A43F0800303
:100BA00013632D4B1B6B03F08003FB60FB6800237A
:100BB000BB60294B1B6B284A43F002031363264B8F
:100BC0001B6B03F00203BB60BB6800237B60224BFE
:100BD0001B6B214A43F0010313631F4B1B6B03F094
:100BE00001037B607B68002207211C4801F0E2FBC7
:100BF0004FF400537B614FF48813BB610023FB610A
:100C000007F114031946164801F038FA10237B61E6
:100C10000023BB610023FB6107F114031946104850
:100C200001F02CFA07237B610123BB610023FB61E8
:100C300000233B6207F114031946084801F01EFA2D
:100C400000220021282001F0E2F9282001F0FBF920
:100C500000BF2837BD4680BD003802400004024076
:100C60000008024080B400AF72B600BFFEE700008B
:100C700080B483B000AF00237B60104B5B6C0F4AE5
:100C800043F4804353640D4B5B6C03F480437B60FF
:100C90007B6800233B60094B1B6C084A43F0805380
:100CA0001364064B1B6C03F080533B603B6800BF32
:100CB0000C37BD465DF8047B704700BF003802402A
:100CC00080B58CB000AF786007F11C0300221A6079
:100CD0005A609A60DA601A617B681B684A4A9342DC
:100CE0003ED14A4B1B680133484A1360474B1B688F
:100CF000012B0DD10023BB61454B1B6C444A43F0D3
:100D000000731364424B1B6C03F00073BB61BB693F
:100D100000237B613E4B1B6B3D4A43F00103136391
:100D20003B4B1B6B03F001037B617B694FF4C053AA
:100D3000FB6102233B6200237B620323BB62092326
:100D4000FB6207F11C031946324801F097F90022B3
:100D50000021142001F05BF9142001F074F94FE038
:100D60007B681B682C4A93424AD100233B61284B85
:100D70001B6C274A43F080631364254B1B6C03F004
:100D800080633B613B69214B1B6801331F4A136041
:100D90001E4B1B68012B0DD10023FB601C4B1B6CF1
:100DA0001B4A43F000731364194B1B6C03F0007370
:100DB000FB60FB680023BB60154B1B6B144A43F0C0
:100DC00002031363124B1B6B03F00203BB60BB688F
:100DD0006023FB6102233B6200237B620323BB622F
:100DE0000923FB6207F11C0319460C4801F046F980
:100DF00000220021402001F00AF9402001F023F9EF
:100E000000BF3037BD4680BD006400402401002093
:100E10000038024000000240006800400004024028
:100E200080B400AFFEE780B400AFFEE780B400AF4F
:100E3000FEE780B400AFFEE780B400AFFEE780B409
:100E400000AF00BFBD465DF8047B704780B400AFC3
:100E500000BFBD465DF8047B704780B400AF00BFA3
:100E6000BD465DF8047B704780B500AF00F072F9B5
:100E700000BF80BD80B500AF024800F0BEFD00BFDE
:100E800080BD00BF8800002080B500AF4FF4005047
:100E900001F0AAFA00BF80BD80B500AF024800F0A3
:100EA000ACFD00BF80BD00BFB000002080B400AF2B
:100EB00001231846BD465DF8047B704780B582B0BB
:100EC00000AF7860396002F09DF8034616221A6080
:100ED0004FF0FF3318460837BD4680BD80B582B05D
:100EE00000AF78604FF0FF317868FFF7E7FFFEE76B
:100EF00080B586B000AFF860B9607A6000237B618E
:100F00000AE0AFF300800146BB685A1CBA60CAB25F
:100F10001A707B6901337B617A697B689A42F0DBE6
:100F20007B6818461837BD4680BD80B586B000AFD7
:100F3000F860B9607A6000237B6109E0BB685A1CE5
:100F4000BA601B781846AFF300807B6901337B6180
:100F50007A697B689A42F1DB7B6818461837BD4690
:100F600080BD80B483B000AF78604FF0FF33184687
:100F70000C37BD465DF8047B704780B483B000AF8A
:100F8000786039603B684FF400525A60002318467D
:100F90000C37BD465DF8047B704780B483B000AF6A
:100FA0007860012318460C37BD465DF8047B704716
:100FB00080B485B000AFF860B9607A60002318464D
:100FC0001437BD465DF8047B7047000080B586B0DD
:100FD00000AF7860144A154BD31A7B617B693B6183
:100FE000134B1B68002B02D1114B124A1A60104B95
:100FF0001A687B6813443A699A4207D202F002F8F1
:1010000003460C221A604FF0FF3309E0084B1B68BF
:10101000FB60074B1A687B681344054A1360FB6842
:1010200018461837BD4680BD0000022000040000AD
:10103000280100208002002080B400AF064BD3F8C6
:101040008830054A43F47003C2F8883000BFBD46BB
:101050005DF8047B704700BF00ED00E0DFF834D09E
:101060000D480E490E4A002302E0D458C450043300
:10107000C4188C42F9D30B4A0B4C002301E01360D7
:101080000432A242FBD3FFF7D7FF01F0C1FFFFF705
:1010900029FC704700000220000000206C000020A6
:1010A000C43D00086C0000207C020020FEE7000028
:1010B00080B500AF0E4B1B680D4A43F400731360FC
:1010C0000B4B1B680A4A43F480631360084B1B6890
:1010D000074A43F480731360032000F08DFF0F2054
:1010E00000F008F8FFF7C4FD0023184680BD00BFDC
:1010F000003C024080B582B000AF7860124B1A68A5
:10110000124B1B7819464FF47A73B3FBF1F3B2FB21
:10111000F3F3184600F0A5FF0346002B01D001238E
:101120000EE07B680F2B0AD8002279684FF0FF3061
:1011300000F06DFF064A7B681360002300E0012386
:1011400018460837BD4680BD040000200C00002072
:101150000800002080B400AF064B1B781A46064BEF
:101160001B681344044A136000BFBD465DF8047B4E
:10117000704700BF0C0000202C01002080B400AF9D
:10118000034B1B681846BD465DF8047B704700BFE3
:101190002C01002080B584B000AF78607B68002B04
:1011A00001D10123EDE07B6893F82030DBB2002B06
:1011B00002D17868FFF784FD7B681B681A687B683A
:1011C0001B6842F001021A60FFF7D8FFF86012E0D6
:1011D000FFF7D4FF0246FB68D31A0A2B0BD97B68B2
:1011E0005B6A43F400327B685A627B68052283F8AD
:1011F00020200123C5E07B681B685B6803F00103C6
:10120000002BE5D07B681B681A687B681B6822F09E
:1012100002021A60FFF7B2FFF86012E0FFF7AEFFBC
:101220000246FB68D31A0A2B0BD97B685B6A43F42E
:1012300000327B685A627B68052283F820200123F4
:101240009FE07B681B685B6803F00203002BE5D11D
:101250007B681B7E012B08D17B681B681A687B6842
:101260001B6842F080021A6007E07B681B681A68FE
:101270007B681B6822F080021A607B685B7E012B12
:1012800008D17B681B681A687B681B6842F04002C3
:101290001A6007E07B681B681A687B681B6822F08D
:1012A00040021A607B689B7E012B08D17B681B681B
:1012B0001A687B681B6842F020021A6007E07B68AE
:1012C0001B681A687B681B6822F020021A607B6822
:1012D000DB7E012B08D17B681B681A687B681B6862
:1012E00022F010021A6007E07B681B681A687B68AE
:1012F0001B6842F010021A607B681B7F012B08D12B
:101300007B681B681A687B681B6842F008021A60D9
:1013100007E07B681B681A687B681B6822F008027C
:101320001A607B685B7F012B08D17B681B681A6899
:101330007B681B6842F004021A6007E07B681B6848
:101340001A687B681B6822F004021A607B689A683E
:101350007B68DB681A437B681B691A437B685B699F
:1013600042EA03017B685B685A1E7B681B680A437C
:10137000DA617B6800225A627B68012283F82020B0
:10138000002318461037BD4680BD000080B487B0EA
:1013900000AF786039607B681B687B617B6893F87D
:1013A0002030FB74FB7C012B03D0FB7C022B40F034
:1013B000BE80654B7B617B69D3F8003243F001024C
:1013C0007B69C3F800227B69D3F8003223F47C5296
:1013D0007B69C3F800227B69D3F800223B685B6A13
:1013E0001B021A437B69C3F800223B685B6903F068
:1013F0001F03012202FA03F3FB607B69D3F81C226E
:10140000FB68DB431A407B69C3F81C223B68DB693D
:10141000002B23D17B69D3F80C22FB68DB431A40F5
:101420007B69C3F80C223B68DB6819043B685B6886
:101430009BB23A68526919437B69483243F83210CB
:101440003B689B6819043B681B689AB23B685B6900
:101450000A4379694833DB000B445A603B68DB6917
:10146000012B22D17B69D3F80C22FB681A437B69DC
:10147000C3F80C223B681B6819043B685B689BB28D
:101480003A68526919437B69483243F832103B6825
:101490009B6819043B68DB689AB23B685B690A4346
:1014A00079694833DB000B445A603B689B69002B29
:1014B00009D17B69D3F80422FB68DB431A407B69BE
:1014C000C3F8042207E07B69D3F80422FB681A43BF
:1014D0007B69C3F804223B681B69002B09D17B6937
:1014E000D3F81422FB68DB431A407B69C3F814224B
:1014F00007E07B69D3F81422FB681A437B69C3F8C1
:1015000014223B681B6A012B07D17B69D3F81C228C
:10151000FB681A437B69C3F81C227B69D3F800324D
:1015200023F001027B69C3F80022002306E07B68F8
:101530005B6A43F480227B685A62012318461C3799
:10154000BD465DF8047B70470064004080B584B000
:1015500000AF78607B6893F82030DBB2012B2ED18E
:101560007B68022283F820207B681B681A687B68EE
:101570001B6822F001021A60FFF700FEF86012E01B
:10158000FFF7FCFD0246FB68D31A0A2B0BD97B68D8
:101590005B6A43F400327B685A627B68052283F8F9
:1015A0002020012312E07B681B685B6803F00103C5
:1015B000002BE5D17B6800225A62002306E07B689D
:1015C0005B6A43F400227B685A6201231846103795
:1015D000BD4680BD80B489B000AFF860B9607A6064
:1015E0003B60FB6893F82030FB77FB681B689B68C7
:1015F000BB61FB7F012B03D0FB7F022B40F0B88047
:10160000BB6903F08063002B0AD1BB6903F0006360
:10161000002B05D1BB6903F08053002B00F0A080A4
:10162000BB691B0E03F003037B617B69022B07D9A7
:10163000FB685B6A43F40002FB685A6201239EE088
:1016400001227B699A403B681A60BB689B68002B4B
:101650000DD1BB681B685A05BB68DB68F96809686F
:101660001A437B6918331B010B441A600FE0BB68F7
:101670005B68DA00BB689B681A43BB68DB68F96883
:1016800009681A437B6918331B010B441A60FB6815
:101690001968BB681A697B6918331B010B44043352
:1016A0001A60BB681B7D012B11D1FB681A687B692E
:1016B00018331B01134404331B68FA68116843F4A0
:1016C00080727B6918331B010B4404331A607B68FA
:1016D00007331B781A067B6806331B781B041A43F2
:1016E0007B6805331B781B0213437A680432127837
:1016F0001046FA68116843EA00027B691B010B443B
:1017000003F5C6731A607B6803331B781A067B687F
:1017100002331B781B041A437B6801331B781B02BE
:1017200013437A6812781046FA68116843EA000297
:101730007B691B010B4403F5C4731A60FB681A68CC
:101740007B6918331B0113441B68FA68116843F066
:1017500001027B6918331B010B441A6000230EE061
:10176000FB685B6A43F40012FB685A62012306E0DF
:10177000FB685B6A43F48022FB685A6201231846C7
:101780002437BD465DF8047B704780B487B000AF56
:10179000F860B9607A603B60FB6893F82030FB75B5
:1017A000FB7D012B03D0FB7D022B40F0F380BB6857
:1017B000002B0ED1FB681B68DB6803F00303002BD2
:1017C00016D1FB685B6A43F40012FB685A6201237E
:1017D000E7E0FB681B681B6903F00303002B07D1DC
:1017E000FB685B6A43F40012FB685A620123D8E08D
:1017F000FB681A68BB681B331B0113441B6803F0AA
:1018000004027B689A607B689B68002B0CD1FB68A4
:101810001A68BB681B331B0113441B685B0DC3F3C1
:101820000A027B681A600BE0FB681A68BB681B330E
:101830001B0113441B68DB0823F060427B685A607D
:10184000FB681A68BB681B331B0113441B6803F059
:1018500002027B68DA60FB681A68BB681B331B01F5
:10186000134404331B6803F00F027B681A61FB68A2
:101870001A68BB681B331B01134404331B681B0A23
:10188000DAB27B689A61FB681A68BB681B331B017C
:10189000134404331B681B0C9AB27B685A61FB68C3
:1018A0001A68BB681B01134403F5DC731B68DAB2CA
:1018B0003B681A70FB681A68BB681B01134403F588
:1018C000DC731B681A0A3B680133D2B21A70FB68DA
:1018D0001A68BB681B01134403F5DC731B681A0C00
:1018E0003B680233D2B21A70FB681A68BB681B01EE
:1018F000134403F5DC731B681A0E3B680333D2B242
:101900001A70FB681A68BB681B01134403F5DE7389
:101910001A683B680433D2B21A70FB681A68BB6855
:101920001B01134403F5DE731B681A0A3B68053379
:10193000D2B21A70FB681A68BB681B01134403F526
:10194000DE731B681A0C3B680633D2B21A70FB6850
:101950001A68BB681B01134403F5DE731B681A0E7B
:101960003B680733D2B21A70BB68002B08D1FB6802
:101970001B68DA68FB681B6842F02002DA6007E047
:10198000FB681B681A69FB681B6842F020021A6139
:10199000002306E0FB685B6A43F48022FB685A621E
:1019A000012318461C37BD465DF8047B704780B4A0
:1019B00085B000AF786039607B6893F82030FB73A6
:1019C000FB7B012B02D0FB7B022B09D17B681B68C0
:1019D00059697B681B683A680A435A61002306E02C
:1019E0007B685B6A43F480227B685A620123184655
:1019F0001437BD465DF8047B704780B58AB000AFF0
:101A0000786000237B627B681B685B693B627B6854
:101A10001B685B68FB617B681B689B68BB617B68BC
:101A20001B68DB687B617B681B681B693B617B68AB
:101A30001B689B69FB603B6A03F00103002B7CD0B1
:101A4000BB6903F00103002B23D07B681B680122D4
:101A50009A60BB6903F00203002B03D0786800F0A2
:101A600083F916E0BB6903F00403002B04D07B6A02
:101A700043F400637B620CE0BB6903F00803002BB6
:101A800004D07B6A43F480537B6202E0786800F004
:101A900089F9BB6903F48073002B24D07B681B6831
:101AA0004FF480729A60BB6903F40073002B03D07B
:101AB000786800F063F916E0BB6903F48063002BDB
:101AC00004D07B6A43F400537B620CE0BB6903F4EF
:101AD0000063002B04D07B6A43F480437B6202E006
:101AE000786800F069F9BB6903F48033002B24D0D7
:101AF0007B681B684FF480329A60BB6903F4003343
:101B0000002B03D0786800F043F916E0BB6903F4BA
:101B10008023002B04D07B6A43F400437B620CE0FB
:101B2000BB6903F40023002B04D07B6A43F48033A9
:101B30007B6202E0786800F049F93B6A03F0080331
:101B4000002B0CD07B6903F01003002B07D07B6ABD
:101B500043F400737B627B681B681022DA603B6A87
:101B600003F00403002B0BD07B6903F00803002B68
:101B700006D07B681B680822DA60786800F030F9CC
:101B80003B6A03F00203002B09D07B681B68DB680B
:101B900003F00303002B02D07868FEF76BFE3B6A6C
:101BA00003F04003002B0CD03B6903F01003002B23
:101BB00007D07B6A43F480637B627B681B681022DA
:101BC0001A613B6A03F02003002B0BD03B6903F042
:101BD0000803002B06D07B681B6808221A6178680E
:101BE00000F012F93B6A03F01003002B09D07B6868
:101BF0001B681B6903F00303002B02D0786800F018
:101C0000F9F83B6A03F40033002B0BD0FB6903F0B7
:101C10001003002B06D07B681B6810225A6078687E
:101C200000F0FCF83B6A03F48033002B0BD0FB6917
:101C300003F00803002B06D07B681B6808225A605B
:101C4000786800F0F5F83B6A03F40043002B7BD082
:101C5000FB6903F00403002B72D03B6A03F480732A
:101C6000002B08D0FB6803F00103002B03D07B6A34
:101C700043F001037B623B6A03F40073002B08D03E
:101C8000FB6803F00203002B03D07B6A43F00203DE
:101C90007B623B6A03F48063002B08D0FB6803F08F
:101CA0000403002B03D07B6A43F004037B623B6A8E
:101CB00003F40063002B43D0FB6803F07003002B98
:101CC0003ED0FB6803F07003602B2BD0602B2ED826
:101CD000502B22D0502B2AD8402B19D0402B26D85D
:101CE000302B10D0302B22D8102B02D0202B05D037
:101CF0001DE07B6A43F008037B6219E07B6A43F0D6
:101D000010037B6214E07B6A43F020037B620FE0E8
:101D10007B6A43F040037B620AE07B6A43F0800306
:101D20007B6205E07B6A43F480737B6200E000BF66
:101D30007B681B689A697B681B6822F070029A6155
:101D40007B681B6804225A607B6A002B08D07B6882
:101D50005A6A7B6A1A437B685A62786800F072F8A4
:101D600000BF2837BD4680BD80B483B000AF786027
:101D700000BF0C37BD465DF8047B704780B483B06C
:101D800000AF786000BF0C37BD465DF8047B70473C
:101D900080B483B000AF786000BF0C37BD465DF8FB
:101DA000047B704780B483B000AF786000BF0C370D
:101DB000BD465DF8047B704780B483B000AF7860A7
:101DC00000BF0C37BD465DF8047B704780B483B01C
:101DD00000AF786000BF0C37BD465DF8047B7047EC
:101DE00080B483B000AF786000BF0C37BD465DF8AB
:101DF000047B704780B483B000AF786000BF0C37BD
:101E0000BD465DF8047B704780B483B000AF786056
:101E100000BF0C37BD465DF8047B704780B483B0CB
:101E200000AF786000BF0C37BD465DF8047B70479B
:101E300080B483B000AF786000BF0C37BD465DF85A
:101E4000047B704780B483B000AF786000BF0C376C
:101E5000BD465DF8047B704780B485B000AF786004
:101E60007B6803F00703FB600C4BDB68BB60BA6860
:101E70004FF6FF031340BB60FB681A02BB681343B5
:101E800043F0BF6343F40033BB60044ABB68D360D4
:101E900000BF1437BD465DF8047B704700ED00E0DD
:101EA00080B400AF044BDB681B0A03F0070318463D
:101EB000BD465DF8047B704700ED00E080B483B060
:101EC00000AF0346FB7197F90730002B0BDBFB7962
:101ED00003F01F02074997F907305B09012000FA58
:101EE00002F241F8232000BF0C37BD465DF8047BA9
:101EF000704700BF00E100E080B483B000AF03464C
:101F00003960FB7197F90730002B0ADB3B68DAB2C6
:101F10000C4997F907301201D2B20B4483F8002321
:101F20000AE03B68DAB20849FB7903F00F03043B8F
:101F30001201D2B20B441A7600BF0C37BD465DF8D1
:101F4000047B704700E100E000ED00E080B489B060
:101F500000AFF860B9607A60FB6803F00703FB61CB
:101F6000FB69C3F10703042B28BF0423BB61FB6992
:101F70000433062B02D9FB69033B00E000237B619D
:101F80004FF0FF32BB6902FA03F3DA43BB681A4031
:101F90007B699A404FF0FF317B6901FA03F3D94323
:101FA0007B680B40134318462437BD465DF8047B1D
:101FB0007047000080B582B000AF78607B68013B5D
:101FC000B3F1807F01D301230FE00A4A7B68013B14
:101FD00053600F214FF0FF30FFF78EFF054B0022BB
:101FE0009A60044B07221A60002318460837BD4642
:101FF00080BD00BF10E000E080B582B000AF786027
:102000007868FFF729FF00BF0837BD4680BD80B55F
:1020100086B000AF0346B9607A60FB7300237B6132
:10202000FFF73EFF78617A68B9687869FFF78EFF3D
:10203000024697F90F3011461846FFF75DFF00BFC3
:102040001837BD4680BD80B582B000AF0346FB7136
:1020500097F907301846FFF731FF00BF0837BD4634
:1020600080BD80B582B000AF78607868FFF7A2FFCE
:10207000034618460837BD4680BD000080B489B0CD
:1020800000AF7860396000237B6100233B6100234F
:10209000BB610023FB616BE10122FB6902FA03F3E0
:1020A0007B613B681B687A6913403B613A697B69D5
:1020B0009A4240F05A813B685B6803F00303012BAE
:1020C00005D03B685B6803F00303022B30D17B68CB
:1020D0009B68BB61FB695B00032202FA03F3DB43ED
:1020E000BA691340BB613B68DA68FB695B0002FABE
:1020F00003F3BA691343BB617B68BA699A607B6872
:102100005B68BB610122FB6902FA03F3DB43BA6936
:102110001340BB613B685B681B0903F00102FB696C
:1021200002FA03F3BA691343BB617B68BA695A6068
:102130003B685B6803F00303032B17D07B68DB6805
:10214000BB61FB695B00032202FA03F3DB43BA695C
:102150001340BB613B689A68FB695B0002FA03F3BA
:10216000BA691343BB617B68BA69DA603B685B6834
:1021700003F00303022B23D1FB69DA087B680832E2
:1021800053F82230BB61FB6903F007039B000F2269
:1021900002FA03F3DB43BA691340BB613B681A6977
:1021A000FB6903F007039B0002FA03F3BA691343C8
:1021B000BB61FB69DA087B680832B96943F8221011
:1021C0007B681B68BB61FB695B00032202FA03F3B7
:1021D000DB43BA691340BB613B685B6803F00302F1
:1021E000FB695B0002FA03F3BA691343BB617B68C6
:1021F000BA691A603B685B6803F44033002B00F057
:10220000B4800023FB60604B5B6C5F4A43F4804307
:1022100053645D4B5B6C03F48043FB60FB685B4A7B
:10222000FB699B08023352F82330BB61FB6903F062
:1022300003039B000F2202FA03F3DB43BA69134046
:10224000BB617B68524A93422BD07B68514A9342D0
:1022500025D07B68504A93421FD07B684F4A9342F7
:1022600019D07B684E4A934213D07B684D4A934203
:102270000DD07B684C4A934207D07B684B4A93420F
:1022800001D107230EE008230CE006230AE0052312
:1022900008E0042306E0032304E0022302E0012314
:1022A00000E00023FA6902F0030292009340BA6949
:1022B0001343BB613549FB699B080233BA6941F896
:1022C00023203B4B1B68BB613B69DB43BA6913406E
:1022D000BB613B685B6803F48033002B03D0BA69B1
:1022E0003B691343BB61324ABB691360304B5B6887
:1022F000BB613B69DB43BA691340BB613B685B6808
:1023000003F40033002B03D0BA693B691343BB616C
:10231000274ABB695360264B9B68BB613B69DB4323
:10232000BA691340BB613B685B6803F48013002B00
:1023300003D0BA693B691343BB611D4ABB69936013
:102340001B4BDB68BB613B69DB43BA691340BB6174
:102350003B685B6803F40013002B03D0BA693B6948
:102360001343BB61124ABB69D360FB690133FB6154
:10237000FB690F2B7FF690AE00BF00BF2437BD4630
:102380005DF8047B704700BF003802400038014010
:10239000000002400004024000080240000C02401D
:1023A000001002400014024000180240001C0240CD
:1023B000003C014080B483B000AF78600B467B8066
:1023C00013467B707B78002B03D07A887B689A61F8
:1023D00003E07B881A047B689A6100BF0C37BD4616
:1023E0005DF8047B7047000080B582B000AF034603
:1023F000FB80084B5A69FB881340002B06D0054A26
:10240000FB885361FB881846FEF7BEF900BF08370A
:10241000BD4680BD003C014080B586B000AF78600D
:102420007B68002B01D1012367E27B681B6803F006
:102430000103002B75D0884B9B6803F00C03042B21
:102440000CD0854B9B6803F00C03082B12D1824BF8
:102450005B6803F48003B3F5800F0BD17E4B1B68E0
:1024600003F40033002B5BD07B685B68002B57D1F3
:10247000012342E27B685B68B3F5803F06D1764B6F
:102480001B68754A43F4803313601DE07B685B680A
:10249000B3F5A02F0CD1704B1B686F4A43F4802317
:1024A00013606D4B1B686C4A43F4803313600BE080
:1024B000694B1B68684A23F480331360664B1B68C2
:1024C000654A23F4802313607B685B68002B13D07C
:1024D000FEF754FE386108E0FEF750FE02463B6905
:1024E000D31A642B01D9032307E25B4B1B6803F467
:1024F0000033002BF0D014E0FEF740FE386108E016
:10250000FEF73CFE02463B69D31A642B01D9032334
:10251000F3E1514B1B6803F40033002BF0D100E0D2
:1025200000BF7B681B6803F00203002B63D04A4B9B
:102530009B6803F00C03002B0BD0474B9B6803F008
:102540000C03082B1CD1444B5B6803F48003002B65
:1025500016D1414B1B6803F00203002B05D07B68AA
:10256000DB68012B01D00123C7E13B4B1B6823F043
:10257000F8027B681B69DB00374913430B603AE0C4
:102580007B68DB68002B20D0344B01221A60FEF7F9
:10259000F5FD386108E0FEF7F1FD02463B69D31A0C
:1025A000022B01D90323A8E12B4B1B6803F0020384
:1025B000002BF0D0284B1B6823F0F8027B681B69C6
:1025C000DB00254913430B6015E0244B00221A6001
:1025D000FEF7D4FD386108E0FEF7D0FD02463B6906
:1025E000D31A022B01D9032387E11B4B1B6803F08D
:1025F0000203002BF0D17B681B6803F00803002B5B
:1026000036D07B685B69002B16D0154B01221A600F
:10261000FEF7B4FD386108E0FEF7B0FD02463B6905
:10262000D31A022B01D9032367E10B4B5B6F03F035
:102630000203002BF0D01BE0094B00221A60FEF7CA
:102640009DFD38610EE0FEF799FD02463B69D31A05
:10265000022B07D9032350E1003802400000474213
:10266000800E4742884B5B6F03F00203002BEAD1D8
:102670007B681B6803F00403002B00F097800023A5
:10268000FB75814B1B6C03F08053002B0FD1002393
:10269000BB607D4B1B6C7C4A43F0805313647A4BC8
:1026A0001B6C03F08053BB60BB680123FB75774B49
:1026B0001B6803F48073002B18D1744B1B68734A9A
:1026C00043F480731360FEF759FD386108E0FEF7AC
:1026D00055FD02463B69D31A022B01D903230CE1B5
:1026E0006A4B1B6803F48073002BF0D07B689B68F7
:1026F000012B06D1644B1B6F634A43F00103136740
:102700001CE07B689B68052B0CD15F4B1B6F5E4AFE
:1027100043F0040313675C4B1B6F5B4A43F00103F8
:1027200013670BE0584B1B6F574A23F001031367E5
:10273000554B1B6F544A23F0040313677B689B6857
:10274000002B15D0FEF71AFD38610AE0FEF716FDE2
:1027500002463B69D31A41F28832934201D90323DE
:10276000CBE0494B1B6F03F00203002BEED014E0CB
:10277000FEF704FD38610AE0FEF700FD02463B6902
:10278000D31A41F28832934201D90323B5E03E4B7C
:102790001B6F03F00203002BEED1FB7D012B05D153
:1027A000394B1B6C384A23F0805313647B689B6958
:1027B000002B00F0A180344B9B6803F00C03082B26
:1027C0005CD07B689B69022B41D1314B00221A609F
:1027D000FEF7D4FC386108E0FEF7D0FC02463B6906
:1027E000D31A022B01D9032387E0274B1B6803F080
:1027F0000073002BF0D17B68DA697B681B6A1A438F
:102800007B685B6A9B011A437B689B6A5B08013BA0
:102810001B041A437B68DB6A1B061B4913434B608E
:102820001B4B01221A60FEF7A9FC386108E0FEF795
:10283000A5FC02463B69D31A022B01D903235CE0B5
:10284000114B1B6803F00073002BF0D054E0104BC9
:1028500000221A60FEF792FC386108E0FEF78EFC59
:1028600002463B69D31A022B01D9032345E0064BEC
:102870001B6803F00073002BF0D13DE07B689B697F
:10288000012B07D1012338E00038024000700040DE
:10289000600047421B4B5B68FB607B689B69012BB8
:1028A00028D0FB6803F480027B68DB699A4221D15F
:1028B000FB6803F03F027B681B6A9A421AD1FA68F0
:1028C00047F6C07313407A68526A9201934211D15D
:1028D000FB6803F440327B689B6A5B08013B1B0486
:1028E0009A4207D1FB6803F070627B68DB6A1B06C3
:1028F0009A4201D0012300E0002318461837BD4654
:1029000080BD00BF0038024080B584B000AF786061
:1029100039607B68002B01D10123CCE0684B1B6838
:1029200003F007033A689A420CD9654B3A68D2B271
:102930001A70634B1B6803F007033A689A4201D090
:102940000123B8E07B681B6803F00203002B20D052
:102950007B681B6803F00403002B05D0594B9B6870
:10296000584A43F4E05393607B681B6803F0080304
:10297000002B05D0534B9B68524A43F4604393604D
:10298000504B9B6823F0F0027B689B684D491343D2
:102990008B607B681B6803F00103002B44D07B68CD
:1029A0005B68012B07D1474B1B6803F40033002BF6
:1029B00019D101237FE07B685B68022B03D07B6821
:1029C0005B68032B07D13F4B1B6803F00073002BA0
:1029D00009D101236FE03B4B1B6803F00203002B7E
:1029E00001D1012367E0374B9B6823F003027B682A
:1029F0005B68344913438B60FEF7C0FBF8600AE064
:102A0000FEF7BCFB0246FB68D31A41F288329342C0
:102A100001D903234FE02B4B9B6803F00C027B682A
:102A20005B689B009A42EBD1254B1B6803F00703C0
:102A30003A689A420CD2224B3A68D2B21A70204BB2
:102A40001B6803F007033A689A4201D0012332E081
:102A50007B681B6803F00403002B08D0194B9B68AC
:102A600023F4E0527B68DB68164913438B607B6874
:102A70001B6803F00803002B09D0124B9B6823F45A
:102A800060427B681B69DB000E4913438B6000F0DA
:102A900021F802460B4B9B681B0903F00F030A4900
:102AA000CB5C22FA03F3094A1360094B1B681846F2
:102AB000FEF720FB002318461037BD4680BD00BF3F
:102AC000003C024000380240C43C000804000020E2
:102AD000080000202DE9B04F94B000AF00237B64C4
:102AE0000023FB6400233B640023BB64794B9B6899
:102AF00003F00C03082B0DD0082B00F2E180002B13
:102B000002D0042B03D0DBE0734BBB64DBE0734BE0
:102B1000BB64D8E06F4B5B6803F03F037B646D4B95
:102B20005B6803F48003002B63D06A4B5B689B09EE
:102B30000022BB63FA63BB6BC3F308033B63002350
:102B40007B63D7E90C4522462B464FF000004FF03F
:102B50000001590141EAD261500102460B4621466B
:102B6000511A3961294663EB01037B614FF0000282
:102B70004FF00003D7E904AB59468B01514643EAB5
:102B8000916351468A015146B2EB0108594663EB05
:102B900001094FF000024FF000034FEAC90343EA76
:102BA00058734FEAC80290469946234618EB030330
:102BB000BB602B4649EB0303FB604FF000024FF074
:102BC0000003D7E9024529464B02214643EAD15387
:102BD00021464A02104619467B6C0022BB62FA620B
:102BE000D7E90A23FDF744FB02460B461346FB6474
:102BF00058E0384B5B689B09002218461146C0F329
:102C000008033B6200237B62D7E9088942464B46B2
:102C10004FF000004FF00001590141EAD26150012C
:102C200002460B464146B2EB010A494663EB010BF3
:102C30004FF000024FF000034FEA8B1343EA9A6310
:102C40004FEA8A12B2EB0A0463EB0B054FF0000265
:102C50004FF00003EB0043EA5473E20014461D46B4
:102C60004346E3183B604B4645EB03037B604FF064
:102C700000024FF00003D7E9004529468B022146A8
:102C800043EA915321468A02104619467B6C002282
:102C9000BB61FA61D7E90623FDF7EAFA02460B4663
:102CA0001346FB640B4B5B681B0C03F003030133FF
:102CB0005B003B64FA6C3B6CB2FBF3F3BB6402E079
:102CC000054BBB6400BFBB6C18465037BD46BDE822
:102CD000B08F00BF003802400024F40000127A00D8
:102CE000164B10B51C68236BB3B9182000F022FAFC
:102CF0000246206320B9124B1248522100F0B0F96D
:102D00001149124BC0E90013114B83600B238381DF
:102D100000210120C2E90401216B0E480B694C69B6
:102D20000D4A584302FB0400A3FB0232013340EB7F
:102D30000200C1E9043020F0004010BD680000200E
:102D4000D43C0008EB3C00080E33CDAB34126DE6EA
:102D5000ECDE05002DF451582D7F954C002310B565
:102D60000446C0E90033C0E90433836081814366CF
:102D7000C2818361194608225C3000F0F4F80D4BE3
:102D800063620D4BA3620D4BE3620D4B23630D4B4E
:102D900024629C4206D003F16802944202D0D033F0
:102DA0009C4205D104F15800BDE8104000F054B930
:102DB00010BD00BFE12E0008032F00083B2F0008C4
:102DC0005F2F000830010020024A0349034800F049
:102DD00069B800BF10000020A93300081C000020C3
:102DE00041680C4B994210B5044601D000F0DCFA62
:102DF000A168094B994202D0204600F0D5FAE1685B
:102E0000064B994204D02046BDE8104000F0CCBAF1
:102E100010BD00BF300100209801002000020020FA
:102E200010B50B4B0B4C0C4A1A60204600220421B3
:102E3000FFF794FF04F1680001220921FFF78EFFDC
:102E400004F1D0000222BDE810401221FFF786BF36
:102E50006802002030010020C92D0008014800F060
:102E6000FCB800BF71020020014800F0F7B800BFB5
:102E70007102002010B50446FFF7F0FF236A1BB172
:102E8000BDE81040FFF7F0BF044B2362044B1B6802
:102E9000002BF5D1FFF7C4FFF2E700BFE12D0008DA
:102EA000680200202DE9F8430746884614460026AC
:102EB000D4E90195B9F1010905D52468002CF7D1B1
:102EC0003046BDE8F883AB89012B07D9B5F90E3040
:102ED000013303D029463846C04706436835E9E741
:102EE00010B50C46B1F90E1000F068F80028ABBF21
:102EF000636DA3891B1823F48053ACBF6365A38162
:102F000010BD2DE9F0411F468B89DB0505460C46B7
:102F1000164605D5B1F90E100223002200F03CF848
:102F2000A389B4F90E1023F48053A38132463B46A3
:102F30002846BDE8F04100F053B810B50C46B1F991
:102F40000E1000F029F8431CA38915BF606523F417
:102F5000805343F48053A38118BFA38110BDB1F9FE
:102F60000E1000F009B802440346934200D17047A6
:102F700003F8011BF9E7000038B5064D00230446AD
:102F800008462B60FDF7EDFF431C02D12B6803B10F
:102F9000236038BD6C02002038B5074D0446084652
:102FA000114600222A601A46FEF702F8431C02D19D
:102FB0002B6803B1236038BD6C02002038B5074D83
:102FC00004460846114600222A601A46FDF790FF83
:102FD000431C02D12B6803B1236038BD6C02002072
:102FE00038B5074D04460846114600222A601A46A5
:102FF000FDF79BFF431C02D12B6803B1236038BD52
:103000006C020020014B1868704700BF6800002068
:1030100070B50D4D0D4C641BA4100026A64209D1BD
:103020000B4D0C4C00F042FE641BA4100026A6427F
:1030300005D170BD55F8043B98470136EEE755F8C9
:10304000043B98470136F2E7BC3D0008BC3D000850
:10305000BC3D0008C03D0008704770477047000045
:103060001FB514461A46094B1B680546D8684CB173
:10307000074B0091CDE9013406492B4600F0BCF91D
:1030800000F0DCF9044B1C46F3E700BF68000020A9
:10309000433D0008503D00087E3D000837B500293B
:1030A00044D051F8043C0190002BA1F10404B8BFB6
:1030B000E41800F0E7F81E4A0198136833B963601A
:1030C000146003B0BDE8304000F0E2B8A34208D974
:1030D000256861198B4201BF19685B684919216035
:1030E000EDE71A465B680BB1A342FAD9116855188F
:1030F000A5420BD1246821445418A3421160E0D1A9
:103100001C685B6853600C441460DAE702D90C2336
:103110000360D6E7256861198B4204BF19685B68B4
:10312000636004BF491921605460CAE703B030BD31
:1031300074020020024B0146186800F023B800BF5B
:103140006800002070B50E4E0C463168054611B976
:1031500000F064F930602146284600F05FF9431C16
:103160000AD0C41C24F00304A04207D0211A284628
:1031700000F054F9013001D14FF0FF34204670BD0A
:10318000780200202DE9F843CD1C25F00305083511
:103190000C2D38BF0C25002D074601DBA94205D9AF
:1031A0000C233B6000263046BDE8F883DFF8D08072
:1031B00000F068F8D8F800301C465CBB2946384659
:1031C000FFF7C0FF431C044655D1D8F800402646FF
:1031D000002E45D1002C48D023683146384604EBF8
:1031E000030900F01BF981453FD121686D1A29467A
:1031F0003846FFF7A7FF013037D023682B44236000
:10320000D8F80030002B38D05A68A2422BD10022C7
:103210005A600FE02268521B1FD40B2A17D961197C
:10322000A342256018BF5960636808BFC8F8001042
:1032300062514B60384604F10B0600F029F826F085
:103240000706231DF21AAED09B1BA350ABE7A34287
:103250006268DDD1C8F80020ECE723466468ACE77B
:1032600034467668B4E71346CCE70C233B60384617
:1032700000F00EF897E72560DCE75B60FFDE00BF3B
:10328000740200200148FFF7E8BE00BF7002002072
:103290000148FFF7E3BE00BF700200208A892DE9D4
:1032A000F041054610070C4658D44B68002B05DC4E
:1032B0000B6C002B02DC0020BDE8F081E66A002EDA
:1032C000F9D0002312F480522F68216A2B6032D08B
:1032D000606DA3895A0705D56368C01A636B0BB18B
:1032E000236CC01A00230246E66A216A2846B047CA
:1032F000431CA38906D129681D292BD8294A0A41D4
:10330000D60727D400226260D9042269226004D53E
:10331000421C01D12B6803B96065616B2F600029E5
:10332000C9D004F14403994202D02846FFF7B6FE03
:1033300000206063C0E701232846B047411CC8D184
:103340002B68002BC5D01D2B01D0162B01D12F606F
:10335000B1E7A38943F04003A381ADE70F69002FD4
:10336000A9D093070E6808BF4B690F6018BF0023F0
:10337000A6EB07088B60B8F1000F9CDD216AA66AF6
:1033800043463A462846B047002806DCA38943F066
:103390004003A3814FF0FF308EE70744A8EB0008FD
:1033A000E9E700BFFEFFBFDF38B50B6905460C46F5
:1033B00013B90025284638BD18B1036A0BB9FFF7C9
:1033C00059FDB4F90C30002BF3D0626ED00704D451
:1033D000990502D4A06DFFF740FE28462146FFF76D
:1033E0005DFF636EDA070546E4D4A3899B05E1D44B
:1033F000A06DFFF733FEDDE70EB403B5014603AB66
:10340000054853F8042B0068019300F047F802B018
:103410005DF804EB03B070476800002038B5064D36
:103420000023044608462B60FDF7D0FD431C02D163
:103430002B6803B1236038BD6C02002008B506205C
:1034400000F094FB0120FDF749FD9368013B002B40
:1034500010B4936008DA9469A34201DB0A2903D10E
:103460005DF8044B00F0C4BA1368581C1060197062
:1034700008465DF8044B7047F8B506460F461446FB
:10348000D518AC4201D1002007E014F8011B3A46E0
:103490003046FFF7DAFF431CF3D1F8BD2DE9F04FBA
:1034A0000D469DB014469846064618B1036A0BB9FE
:1034B000FFF7E0FC6B6ED90705D4AB899A0502D4FF
:1034C000A86DFFF7CAFDAB891B0701D52B699BB916
:1034D0002946304600F0CAFA70B16B6EDC0704D59D
:1034E0004FF0FF301DB0BDE8F08FAB899805F7D4E1
:1034F000A86DFFF7B3FDF3E70023099320238DF8B0
:103500002930CDF80C803023DFF8B0818DF82A30D7
:103510004FF0010923469A4613F8012B0AB1252AD8
:10352000F9D1BAEB040B0BD05B4622462946304654
:10353000FFF7A2FF013000F0A980099A5A440992CE
:103540009AF80030002B00F0A18000234FF0FF32EA
:10355000CDE905230AF1010A049307938DF853304E
:103560001A935446052214F8011B5448FCF730FE08
:10357000049AD8B9D10644BF20238DF853301307DD
:1035800044BF2B238DF853309AF800302A2B15D0E6
:10359000079A544600204FF00A0C214611F8013BCF
:1035A000303B092B4DD9B0B1079214E0A0EB0803D2
:1035B00009FA03F313430493A246D2E7039B191DB0
:1035C0001B680391002BBBBF5B4242F002020793D2
:1035D0000793B8BF049223782E2B0CD163782A2B43
:1035E00034D1039B1A1D1B680392002BB8BF4FF008
:1035F000FF3302340593DFF8D4A02178032250462C
:10360000FCF7E6FD38B1049BA0EB0A0040228240A3
:1036100013430134049314F8011B29488DF8281032
:103620000622FCF7D5FD00283FD0264B1BBB039B91
:10363000073323F0070308330393099B3B440993A3
:1036400068E70CFB02320C460120A6E70023013498
:10365000059319464FF00A0C204610F8012B303A1A
:10366000092A03D9002BC6D00591C4E70CFB012120
:1036700004460123F0E703AB00932A46124B04A94A
:103680003046AFF300800746781CD6D16B6ED90761
:1036900005D4AB899A0502D4A86DFFF7DFFCAB898E
:1036A0005B063FF51DAF09981CE703AB00932A4664
:1036B000054B04A9304600F079F8E4E77F3D0008A7
:1036C000893D00080000000079340008853D0008AD
:1036D0002DE9F047164699468A680B69DDF8208087
:1036E0009342B8BF1346336091F8432007460C4617
:1036F0000AB1013333602368990642BF336802334D
:103700003360256815F0060506D104F1190AE3684F
:1037100032689B1AAB4226DC94F84320131E2268C1
:1037200018BF012392062BD404F1430249463846C0
:10373000C04701301ED02368226903F00603042B22
:1037400002BFE5683368ED1AA3680CBF25EAE5758A
:1037500000259342C4BF9B1AED1800261A34B542C7
:103760001AD1002008E00123524649463846C04796
:10377000013003D14FF0FF30BDE8F0870135C6E7D7
:10378000E1185A1C302081F84300224494F8451077
:1037900082F843100233C7E70123224649463846E0
:1037A000C0470130E6D00136D9E700002DE9FF47D8
:1037B0000F7E0C9D782F914680460C469A4601F16B
:1037C000430207D8622F0AD8002F00F0D480582F68
:1037D00000F0C08004F1420584F842703AE0A7F19D
:1037E0006303152BF6D801A151F823F045380008E2
:1037F00059380008D5370008D5370008D5370008F4
:10380000D537000859380008D5370008D5370008E3
:10381000D5370008D53700085D390008853800081D
:1038200017390008D5370008D53700087F39000858
:10383000D537000885380008D5370008D537000887
:103840001F3900082B681A1D1B682A6004F1420505
:1038500084F8423001239FE020682B68070603F1BB
:103860000401296001D51E6803E04606FBD5B3F9C3
:103870000060002E03DA2D23764284F843305A4844
:103880000A2312E02B682068191D2960050601D55E
:103890001E6802E04106FBD51E8853486F2F0CBFFF
:1038A00008230A23002184F843106568A560002DD1
:1038B000A2BF216821F0040121600EB9002D4BD078
:1038C0001546B6FBF3F103FB1167C75D05F8017DF3
:1038D0003746BB420E46F4D9082B0BD12368DE07CE
:1038E00008D5236961689942DEBF302305F8013CA1
:1038F00005F1FF35521B2261CDF800A04B4603AA0B
:1039000021464046FFF7E4FE01304AD14FF0FF3038
:1039100004B0BDE8F087236843F0200323603348F8
:10392000782784F84570236829681F0651F8046BCE
:1039300002D45F0648BFB6B2DF0748BF43F020039A
:10394000296048BF23601EB9236823F02003236049
:103950001023A7E72448E4E71546BDE72B6826684F
:103960006169181D286035061B6801D5196002E0E1
:103970007006FBD51980002323611546BCE72B6830
:103980001A1D2A601D68626800212846FCF720FC89
:1039900008B1401B606063682361002384F84330F2
:1039A000AAE723692A4649464046D0470130ADD0B0
:1039B00023689B0713D4E068039B9842B8BF18465E
:1039C000A6E70123324649464046D04701309DD004
:1039D0000135E36803995B1AAB42F2DCEBE70025A3
:1039E00004F11906F5E700BF903D0008A13D00086D
:1039F000F8B50E461446054618B1036A0BB9FFF731
:103A000039FAA369A360A3891A0725D523691BB3D3
:103A100023682269981A6369F6B28342374604DC48
:103A200021462846FFF7C0FCE0B9A368013BA3602C
:103A300023685A1C22601E706269431C9A4204D09B
:103A4000A389DB0706D50A2E04D121462846FFF7B5
:103A5000ABFC38B93846F8BD2146284600F006F8D8
:103A60000028D5D04FF0FF37F4E7000038B52A4BD7
:103A7000054618680C4618B1036A0BB9FFF7FAF946
:103A8000A389B4F90C20180722D4D90607D4092336
:103A90002B6042F04003A3814FF0FF3034E0580721
:103AA00012D5616B41B104F14403994202D028461A
:103AB000FFF7F4FA00236363A38923F02403A381AF
:103AC0000023636023692360A38943F00803A38173
:103AD00023694BB9A38903F42073B3F5007F03D0A6
:103AE0002146284600F084F8A089B4F90C2010F093
:103AF00001030AD00023A36063695B42A3612369C9
:103B000043B910F08000C4D138BD810758BF636944
:103B1000A360F4E70020F7E7680000201F2938B50C
:103B200004460D4604D9162303604FF0FF3038BD1C
:103B3000C26B12B152F821304BB9204600F030F878
:103B40002A4601462046BDE8384000F017B8012B50
:103B50000AD0591C03D1162303600120E7E7002493
:103B600042F82540284698470020E0E7024B0146EE
:103B70001868FFF7D3BF00BF6800002038B5074DB5
:103B800000230446084611462B60FDF797F9431CB5
:103B900002D12B6803B1236038BD00BF6C02002046
:103BA000FDF784B970B50C46B1F90E10002996B036
:103BB00015461E460DDAA38913F0800F4FF0000161
:103BC0000CBF4FF480634023002031602B6016B09F
:103BD00070BD6A4600F048F80028ECDB019901F45A
:103BE0007041A1F50053594259414FF48063EBE70E
:103BF0008B8973B59D0706460C4607D504F147032C
:103C0000236023610123636102B070BD01AB6A468A
:103C1000FFF7C8FF009905463046FFF7B3FA48B9E9
:103C2000B4F90C309A05EFD423F0030343F00203F8
:103C3000A381E3E7A389206043F08003A381009B75
:103C40006361019B20615BB1B4F90E10304600F056
:103C50001DF828B1A38923F0030343F00103A381D6
:103C6000A3891D43A581CFE738B5074D002304463E
:103C7000084611462B60FDF780F9431C02D12B68E2
:103C800003B1236038BD00BF6C02002038B5064D7B
:103C90000023044608462B60FDF77FF9431C02D140
:103CA0002B6803B1236038BD6C020020F8B500BF5B
:103CB000F8BC08BC9E467047F8B500BFF8BC08BC0D
:043CC0009E46704765
:103CC40000000000000000000102030406070809C8
:103CD4005245454E54206D616C6C6F63207375635F
:103CE400636565646564002F6275696C642F676E33
:103CF400752D746F6F6C732D666F722D73746D33C5
:103D0400325F31312E332E72656C312E32303233C4
:103D1400303931322D313630302F7372632F6E6566
:103D2400776C69622F6E65776C69622F6C69626368
:103D34002F7374646C69622F72616E642E63002C3D
:103D44002066756E6374696F6E3A200061737365E3
:103D54007274696F6E2022257322206661696C6516
:103D6400643A2066696C6520222573222C206C69D4
:103D74006E65202564257325730A00232D302B20BE
:103D840000686C4C00656667454647003031323345
:103D940034353637383941424344454600303132B0
:103DA4003334353637383961626364656600000040
:083DB400ECC4FF7F01000000D8
:043DBC00B501000845
:043DC0009101000865
:103DC400010000000024F4001000000001000000C5
:103DD400000000000300000030010020000000008B
:103DE40030010020980100200002002000000000A3
:103DF40000000000000000000000000000000000BF
:103E040000000000000000000000000000000000AE
:103E1400000000000000000000000000000000009E
:0C3E240000000000000000001C00002056
:040000050800105D82
:00000001FF
